:100000006F00A03700000000EA030000E8030000D2
:1000100000000000000000000000000000000000E0
:1000200000000000000000000000000000000000D0
:10003000E803000000000000E803000000000000EA
:10004000E8030000E8030000E8030000E803000004
:10005000E8030000E8030000E8030000E8030000F4
:10006000E8030000E8030000E8030000E8030000E4
:10007000E8030000E8030000E8030000E8030000D4
:10008000E8030000E8030000E8030000E8030000C4
:10009000E8030000E8030000E8030000000000009F
:1000A000634E050263C305042E86AA857D5515C2DD
:1000B00085466378B6006356C00006068606E36C84
:1000C000B6FE014563E4C500918D558D858205829C
:1000D000F5FA82808682C93F2E8582823305A04050
:1000E0006347B000B305B040C1B7B305B0408682E6
:1000F000653F3305A0408282868263C7050063495D
:1001000005005D372E858282B305B040E35B05FEB6
:100110003305A040513F3305B040828200003111C9
:1001200026C406C822C6AE84AA87B28599C60143F2
:1001300063D79600B684054319A00143A68633848D
:10014000964063530400014422863A853EC21AC099
:100150005129024392472A87B30685000146B38599
:10016000C4406342B00463D304008144B385960065
:100170003385E540630403026372B7029307A0026C
:10018000A38FF5FE9386F5FF637AD700238FF5FEE4
:100190009386E5FF6374D700A38EF5FEC240324418
:1001A000A24451018280B385C70003C50500B38511
:1001B000C60005062380A5005DB7011106CE22CC3E
:1001C00026CA02C02A836357050089E685473303A0
:1001D000A0403EC0058A1304100619C2130410047F
:1001E000BA8459141A853AC81AC22EC61AC4DD3503
:1001F000A5472243B24542479376F50F63E1A70630
:100200009386060393F6F60F938714002380D40099
:100210001A853AC83EC62EC4413D9246A245B24711
:1002200042472A8363FBB602824699C69306D002F0
:100230002380D700938724003385E7409356F50148
:10024000AA962380070085860146FD17634BD600DA
:10025000F2406244D24405618280BE8461B7A296B6
:1002600055B7B305C70083C2070003C305000506E1
:100270002380550023806700C9BFB70700E093873C
:10028000470F9C438280011122CC06CE26CA2AC089
:1002900002C82E84F9E1B70700E09387470F9C431B
:1002A00089C793F7070891E3C93FF240228562446A
:1002B000D24405618280B30694401D46368763535D
:1002C000D6001D473776020013061610832503005B
:1002D00013F505083DED81C91AC63AC436C2713F0F
:1002E00032432247924693A63600014699E213060E
:1002F000D7FF8247938534000808BE951AC43AC2D6
:10030000DD2C42468247B70600E02243124793861F
:10031000860F90C28D453386970081468342060042
:100320008506938706013385270023005500630562
:10033000D7000506E394B6FE9306470093E606F859
:100340002308D100C246BA942320D300E3C584F623
:10035000A9BF7D1625FE268489BF370300E08144AE
:100360001303430FE5B7511122C206C42E84213F67
:10037000A24022851244310182809701002093819E
:1003800061481381010013050008731005308D4684
:1003900017050000130505C7558D731055301385DB
:1003A00081809385818001466356B50010C1110597
:1003B000E34EB5FE1305006F97050020938585C4B5
:1003C000138681806388C500144194C1110591058D
:1003D000E39AC5FEB7F700E0054798C39307406767
:1003E000739017347300203001A0371702401C4768
:1003F000B7068000D58F1CC7AA8703C7070001E78F
:100400003385A74082808507CDBF130141FAA2CA78
:10041000A6C886CC2AC02EC23284B68402CA8347BC
:10042000040093061400A30FF10081EBE64056444C
:100430005245C6441301C105828036C613075002D7
:100440006380E7021246824785451305F1018297D2
:10045000B24626C43684D247A244AA973ECAC1B740
:10046000034714001306000393060003A30FE100E3
:1004700032C6930724006312D7083E848146814721
:10048000A54511A8139727000504BA970347F4FF61
:100490008607B2978546130607FD1375F60FE3F33B
:1004A000A5FE99C2A30FE1003EC8E14663D3F60062
:1004B00036C81306C00681466318C7000347040008
:1004C00085460504A30FE1000346F101130740062A
:1004D0006305E6066367C702930780056300F60AB3
:1004E00093073006630DF60A31D2124682478545DE
:1004F0001305F101829726C4B9BF9306000236C6E0
:10050000ADBF13075007630AE602130780076307AE
:10051000E60613073007E31AE6FC3ECC9387440057
:1005200084403EC42685C93DE247AA856356F0084B
:10053000C2463246381826851DA0938744003EC423
:1005400095C61306B6F81810933616008840014673
:10055000A945A531C24632463818AA850810C136C9
:100560001246AA85281882478297F5B59307500747
:1005700018108546E30CF6FC8146C9BF8840130677
:1005800086FA938744001810854613361600C14535
:100590003EC42531C2463246AA853818C1B7938772
:1005A00044003EC49C40C2463246A30FF1003818B6
:1005B00085451305F10165B7124626856DB7130110
:1005C000C1FD32CA2A862EC836CC814514081305CF
:1005D000603606C63ACE3ED036C0053DB240130165
:1005E000410282802A96AA876393C7008280238073
:1005F000B7008507D5BF81476313F6008280338734
:10060000F500834607003307F50085072300D70070
:10061000E5B7B7270240054798C3B7170240370729
:10062000080123A207001307170898C337079F0084
:1006300098C7371702401C4393966700E3DD06FE18
:100640005C43B7160240F19B93E727005CC3214748
:10065000DC42B18BE39EE7FEB70700E09387870F8C
:1006600023A00700B70700E09387470F1307000890
:1006700098C38280511122C226C006C42944513F2A
:10068000B704002083A504001305C06D0D3F03A728
:100690000400130600028145B70600801315E70128
:1006A0009317A700A98FB98F1315F701F58FA98F9D
:1006B000058385815D8FDD8D9307F6FF13F6F70FB8
:1006C00071FE1305406E7D1423A0E400CD3D5DF85E
:1006D000A2401244824401453101828030782530A5
:1006E00038580A003078253038580A0A00000000CF
:0806F0002FA37A740000000042
:00000001FF
